:020000040800F2
:1000000000500020B9260008B1250008B9250008D5
:10001000C1250008C9250008D125000800000000FE
:10002000000000000000000000000000219D00080A
:10003000D925000800000000019F0008E525000800
:1000400001270008012700080127000801270008F0
:1000500001270008FF2500080127000801270008E4
:1000600001270008012700080127000801270008D0
:1000700001270008012700080127000801270008C0
:1000800001270008012700080127000801270008B0
:1000900001270008012700080127000801270008A0
:1000A0000D26000821260008012700083526000833
:1000B000492600085D26000801270008712600086F
:1000C00085260008012700080127000801270008ED
:1000D00001270008012700089926000801270008C9
:1000E0000127000801270008012700080000000080
:1000F0000000000000000000000000000000000000
:0C01000000000000000000005FF808F1A3
:1001100010B5054C237833B9044B13B10448AFF341
:1001200000800123237010BD140000200000000097
:100130009CA4000808B5034B1BB103490348AFF367
:10014000008008BD00000000180000209CA40008EA
:1001500080F0004002E000BF81F0004142001FBF7C
:100160005FEA410392EA030F7FEA226C7FEA236C85
:100170006AD04FEA1262D2EB1363C1BFD21841407A
:1001800048404140B8BF5B42192B88BF704710F010
:10019000004F40F4000020F07F4018BF404211F0B3
:1001A000004F41F4000121F07F4118BF494292EA1B
:1001B000030F3FD0A2F1010241FA03FC10EB0C0047
:1001C000C3F1200301FA03F100F0004302D54942D4
:1001D00060EB4000B0F5000F13D3B0F1807F06D381
:1001E00040084FEA310102F10102FE2A51D2B1F179
:1001F000004F40EBC25008BF20F0010040EA03006E
:100200007047490040EB0000013A28BFB0F5000FED
:10021000EDD2B0FA80FCACF1080CB2EB0C0200FAA3
:100220000CF0AABF00EBC25052421843BCBFD040F2
:100230001843704792F0000F81F4000106BF80F46C
:1002400000000132013BB5E74FEA41037FEA226C2F
:1002500018BF7FEA236C21D092EA030F04D092F0FA
:10026000000F08BF0846704790EA010F1CBF00202E
:10027000704712F07F4F04D1400028BF40F000408B
:10028000704712F100723CBF00F50000704700F0AB
:10029000004343F0FE4040F4000070477FEA2262D2
:1002A00016BF08467FEA23630146420206BF5FEAA3
:1002B000412390EA010F40F4800070474FF00003A3
:1002C00004E000BF10F0004348BF40425FEA000C6A
:1002D00008BF704743F0964301464FF000001CE012
:1002E00050EA010208BF70474FF000030AE000BF68
:1002F00050EA010208BF704711F0004302D54042A6
:1003000061EB41015FEA010C02BF84460146002017
:1003100043F0B64308BFA3F18053A3F50003BCFA32
:100320008CF2083AA3EBC25310DB01FA02FC6344DF
:1003300000FA02FCC2F12002BCF1004F20FA02F2E6
:1003400043EB020008BF20F00100704702F12002D9
:1003500001FA02FCC2F1200250EA4C0021FA02F23A
:1003600043EB020008BF20EADC7070474FF0FF0C3F
:100370001CEAD0521EBF1CEAD15392EA0C0F93EA3A
:100380000C0F6FD01A4480EA010C400218BF5FEADC
:1003900041211ED04FF0006343EA501043EA51114F
:1003A000A0FB01310CF00040B1F5000F3EBF490049
:1003B00041EAD3715B0040EA010062F17F02FD2A4D
:1003C0001DD8B3F1004F40EBC25008BF20F0010030
:1003D000704790F0000F0CF0004C08BF49024CEA47
:1003E000502040EA51207F3AC2BFD2F1FF0340EAD9
:1003F000C250704740F400004FF00003013A5DDC4A
:1004000012F1190FDCBF00F000407047C2F100028A
:10041000410021FA02F1C2F1200200FA02FC5FEA77
:10042000310040F1000053EA4C0308BF20EADC70C1
:10043000704792F0000F00F0004C02BF400010F433
:10044000000F013AF9D040EA0C0093F0000F01F0E0
:10045000004C02BF490011F4000F013BF9D041EA02
:100460000C018FE70CEAD15392EA0C0F18BF93EA04
:100470000C0F0AD030F0004C18BF31F0004CD8D12E
:1004800080EA010000F00040704790F0000F17BFB5
:1004900090F0004F084691F0000F91F0004F14D0FB
:1004A00092EA0C0F01D142020FD193EA0C0F03D153
:1004B0004B0218BF084608D180EA010000F0004056
:1004C00040F0FE4040F40000704740F0FE4040F431
:1004D000400070474FF0FF0C1CEAD0521EBF1CEAD0
:1004E000D15392EA0C0F93EA0C0F69D0A2EB0302EE
:1004F00080EA010C49024FEA402037D04FF0805388
:1005000043EA111143EA10130CF000408B4238BF4C
:100510005B0042F17D024FF4000C8B4224BF5B1A5A
:1005200040EA0C00B3EB510F24BFA3EB510340EAA8
:100530005C00B3EB910F24BFA3EB910340EA9C0056
:10054000B3EBD10F24BFA3EBD10340EADC001B01C6
:1005500018BF5FEA1C1CE0D1FD2A3FF650AF8B426A
:1005600040EBC25008BF20F0010070470CF0004C77
:100570004CEA50207F32C2BFD2F1FF0340EAC250A2
:10058000704740F400004FF00003013A37E792F063
:10059000000F00F0004C02BF400010F4000F013AC1
:1005A000F9D040EA0C0093F0000F01F0004C02BFBC
:1005B000490011F4000F013BF9D041EA0C0195E725
:1005C0000CEAD15392EA0C0F08D142027FF47DAFBE
:1005D00093EA0C0F7FF470AF084676E793EA0C0FAE
:1005E00004D14B023FF44CAF08466EE730F0004CAC
:1005F00018BF31F0004CCAD130F000427FF45CAF3C
:1006000031F000437FF43CAF5FE700BF4FF0FF3CA9
:1006100006E000BF4FF0010C02E000BF4FF0010CFC
:100620004DF804CD4FEA40024FEA41037FEA226CC5
:1006300018BF7FEA236C11D001B052EA530C18BFE7
:1006400090EA010F58BFB2EB030088BFC81738BF4C
:100650006FEAE17018BF40F0010070477FEA226C3A
:1006600002D15FEA402C05D17FEA236CE4D15FEA36
:10067000412CE1D05DF8040B704700BF844608466A
:100680006146FFE70FB5FFF7C9FF002848BF10F12B
:10069000000F0FBD4DF808EDFFF7F4FF0CBF012070
:1006A00000205DF808FB00BF4DF808EDFFF7EAFFFA
:1006B00034BF012000205DF808FB00BF4DF808EDB5
:1006C000FFF7E0FF94BF012000205DF808FB00BFAA
:1006D0004DF808EDFFF7D2FF94BF012000205DF830
:1006E00008FB00BF4DF808EDFFF7C8FF34BF01203D
:1006F00000205DF808FB00BF42000ED2B2F1FE4FB1
:100700000BD34FF09E03B3EB126209D44FEA0023E0
:1007100043F0004323FA02F070474FF000007047A7
:1007200012F1610F01D1420202D14FF0FF30704748
:100730004FF00000704700BF80B483B000AF786016
:100740000B467B807B88394A32F81330DAB27B68FB
:100750001A707B880133354A32F81330DAB27B687D
:100760005A707B880233314A32F81330DAB27B6830
:100770009A707B8803332D4A32F81330DAB27B68E3
:10078000DA707B880433294A32F81330DAB27B6896
:100790001A717B880533254A32F81330DAB27B6848
:1007A0005A717B880633214A32F81330DAB27B68FB
:1007B0009A717B8807331D4A32F81330DAB27B68AE
:1007C000DA717B880833194A32F81330DAB27B6861
:1007D0001A727B880933154A32F81330DAB27B6813
:1007E0005A727B880A33114A32F81330DAB27B68C6
:1007F0009A727B880B330D4A32F81330DAB27B6879
:10080000DA727B880C33094A32F81330DAB27B682B
:100810001A737B880D33054A32F81330DAB27B68DD
:100820005A7300BF0C37BD4680BC7047880000205B
:1008300080B483B000AF78600B467B807B681A7809
:100840007B881146374A22F813107B685A787B88D8
:1008500001331146334A22F813107B689A787B885B
:10086000023311462F4A22F813107B68DA787B880E
:10087000033311462B4A22F813107B681A797B88C0
:1008800004331146274A22F813107B685A797B8873
:1008900005331146234A22F813107B689A797B8826
:1008A000063311461F4A22F813107B68DA797B88D9
:1008B000073311461B4A22F813107B681A7A7B888B
:1008C00008331146174A22F813107B685A7A7B883E
:1008D00009331146134A22F813107B689A7A7B88F1
:1008E0000A3311460F4A22F813107B68DA7A7B88A4
:1008F0000B3311460B4A22F813107B681A7B7B8856
:100900000C331146074A22F813107B685A7B7B8808
:100910000D331146034A22F8131000BF0C37BD46B1
:1009200080BC70478800002080B582B000AF78603E
:100930007B685B78012B14D101224FF400712048B1
:1009400002F09EFD7B681B78012B02D0022B04D0A5
:1009500031E0786800F0BCF82DE0786800F0C4F869
:1009600029E07B685B78002B25D100224FF40071D1
:10097000134802F085FD7B6800221A73114B002298
:100980001A837B6800221A717B680022DA707B6808
:100990000D4A934207D10021786800F079FA0020CF
:1009A00000F014F807E00021786800F095FA0020C4
:1009B00000F050F8FFE700BF0837BD4680BD00BF1C
:1009C00000080140880000203000002080B582B07F
:1009D00000AF0346FB71FB79002B18D1194B0022A5
:1009E0001A7100221021184802F04AFD002202214B
:1009F000164802F045FD134B0022DA70002114481E
:100A000005F0D2F90421124805F0CEF916E0FB7981
:100A1000012B08D10B4B01221A71012210210A4827
:100A200002F02EFD0AE0FB79022B07D1054B0222D2
:100A30001A7100221021044802F022FD00BF08377D
:100A4000BD4680BD3000002000080140000C014080
:100A50002405002080B582B000AF0346FB71FB790E
:100A6000002B13D1174B00221A71002202211648C5
:100A700002F006FD134B0022DA700021134805F046
:100A800093F90821114805F08FF916E0FB79012B45
:100A900008D10C4B01221A71012202210A4802F0EE
:100AA000EFFC0AE0FB79022B07D1064B02221A71F8
:100AB00000220221044802F0E3FC00BF0837BD46D3
:100AC00080BD00BF400000200008014094040020C9
:100AD00080B483B000AF786000BF00BF18460C3709
:100AE000BD4680BC7047000090B587B000AF78600D
:100AF0007B68554A934201D1012300E00223FB7534
:100B0000FB7D012B01D1514B00E0514B3B617B68D8
:100B10005B78002B07D07B681B78022B03D17B68A6
:100B20001B79002B35D13B694A4A1A603B694FF06B
:100B300000025A603B694FF000029A603B694FF037
:100B40000002DA603B694FF000021A613B694FF026
:100B500000025A613B694FF000029A617B680022F3
:100B6000DA70FB7D012B0BD10021786800F090F941
:100B70000020FFF72BFF0021374805F015F906E0AC
:100B80000021786800F0A8F90020FFF763FF002338
:100B900072E17B681B78022B40F067817B685B7891
:100BA000012B40F062817B681B79002B00F05D8196
:100BB0007B68DB79C83B1846FFF784FB04467B68FB
:100BC0009B781846FFF77EFB034624491846FFF73B
:100BD00081FC034619462046FFF7C8FB03461D4922
:100BE0001846FFF7BBFA03461A463B691A603B6991
:100BF0001A683B699B6919461046FFF7ADFA034630
:100C0000FB604FF00001F868FFF76CFD0346002B16
:100C100008D07B685B7A1846FFF750FB02463B69B9
:100C20009A6021E04FF00001F868FFF73DFD0346B0
:100C3000002B15D07B685B7A5B421846FFF742FBBE
:100C400002463B699A600FE030000020500000200F
:100C50006C00002000004843240500200000C8422A
:100C60003B694FF000029A603B695C683B699A6897
:100C70003B695B6919461046FFF778FB0346194646
:100C80002046FFF76BFA03461A463B695A603B69F8
:100C90005C687B681B7A1846FFF714FB034619460D
:100CA0002046FFF71FFD0346002B07D07B681B7A09
:100CB0001846FFF703FB02463B695A603B695C68D4
:100CC0007B681B7A5B421846FFF7FCFA034619461D
:100CD0002046FFF7E9FC0346002B08D07B681B7A0F
:100CE0005B421846FFF7EEFA02463B695A603B69E1
:100CF0009C693B695A683B695B6919461046FFF776
:100D000035FB034619462046FFF728FA03461A46E4
:100D10003B699A613B699C697B68DB791846FFF700
:100D2000D1FA034619462046FFF7DCFC0346002BA8
:100D300007D07B68DB791846FFF7C0FA02463B69AB
:100D40009A613B699B694FF000011846FFF7ACFCC4
:100D50000346002B03D03B694FF000029A613B69C8
:100D6000DC683B699A693B695B6919461046FFF785
:100D7000FDFA034619462046FFF7F0F903461A46E6
:100D80003B69DA603B699B693D491846FFF796FC71
:100D90000346002B01D000236EE03B699C697B6811
:100DA000DB791846FFF78EFA034619462046FFF70F
:100DB0008FFC0346002B01D064235DE03B699B69F7
:100DC0002F491846FFF7C8F903461C467B68DB79B4
:100DD000C83B1846FFF776FA034619462046FFF748
:100DE00079FB03461846FFF787FC0346DBB218463B
:100DF000FFF768FA034623491846FFF7B7FA034698
:100E00001846FFF779FC0346DAB27B68DA703B6973
:100E10009B694FF000011846FFF764FC0346002B66
:100E200023D0194B1B681846FFF748FA04463B6964
:100E30009B694FF082411846FFF798FA034619461E
:100E40002046FFF747FB03464FF07E511846FFF759
:100E500083F903461846FFF74FFC0346BB60BB68A7
:100E6000002B02D0094ABB68D3623B699B691846D4
:100E7000FFF742FC0346DBB218461C37BD4690BD67
:100E8000000048430000C842040000200004004065
:100E900080B584B000AF78600B46FB700C4B1B68CC
:100EA000DB6AFB60FB68322202FB03F3094AA2FB08
:100EB00003235B09BB600021054804F0D3FE044B0B
:100EC0001B68BA685A6300BF1037BD4680BD00BFBB
:100ED000240500201F85EB5180B584B000AF7860F9
:100EE0000B46FB70184B1B68DB6AFB60FB78FA68EB
:100EF00002FB03F3154AA2FB03235B09BB607B687B
:100F00001B79012B0CD108210F4804F04DFF002163
:100F10000D4804F0A7FE0C4B1B68BA685A630FE03B
:100F20007B681B79022B0BD10021074804F03CFFA2
:100F30000821054804F096FE034B1B68BA68DA6383
:100F400000BF1037BD4680BD940400201F85EB51C3
:100F500080B485B000AF6C4B0522A3F800226A4B29
:100F60000522A3F80222684B0022A3F80422664B54
:100F70000122A3F80622644B0722A3F80822624B41
:100F80000122A3F80A22604B0122A3F80C225E4B37
:100F90000022A3F80E225C4B0022A3F810225A4B29
:100FA0000022A3F81222584B01221A80564B00222D
:100FB0005A80554B00229A80534B0022DA80524BC4
:100FC00000221A81504B0222DA814F4B05221A82ED
:100FD0004D4B02225A824C4B00221A834A4B00226C
:100FE0005A83494B64225A81474B00229A81464BCF
:100FF00005229A82444B0422DA82434B01221A844E
:10100000414B00225A84404B00229A843E4B0022DE
:10101000DA843D4B00221A853B4B0222DA853A4B9B
:1010200005221A86384B02225A86374B00221A872D
:10103000354B00225A87344B64225A85324B0022AA
:101040009A85314B05229A862F4B0422DA862E4B45
:101050000022A3F840202C4B0022A3F842202A4B68
:101060000022A3F84420284B0022A3F84620264B58
:101070000022A3F84820244B0022A3F84A20224B48
:101080000022A3F86020204B0022A3F862201E4B10
:101090000022A3F864201C4B0022A3F866201A4B00
:1010A0000022A3F868200023FB6007E0174AFB68D2
:1010B000002122F81310FB680133FB60FB68042B4E
:1010C000F4DD0023BB6007E0114ABB681344002233
:1010D0001A70BB680133BB60BB68072BF4DD0023CB
:1010E0007B6007E00B4A7B68134400221A707B6820
:1010F00001337B607B68032BF4DD00BF00BF143736
:10110000BD4680BC704700BF88000020E002002080
:10111000EC020020F402002080B487B000AF7860B9
:1011200039604FF6FF73FB8200233B6126E03B6989
:101130007A6813441B781A46FB8A5340FB820823C3
:10114000FB6015E0FB8A03F00103002B0AD0FB8A49
:101150005B08FB82FB8A83F4BF4383F07E03DB439F
:10116000FB8202E0FB8A5B08FB82FB68013BFB60C1
:10117000FB68002BE6D13B6901333B613A693B6870
:101180009A42D4DBFB8A18461C37BD4680BC7047A8
:1011900080B584B000AF78607B681B682D4A9342AD
:1011A00054D101F007FB03462B4A13602B4B1B78ED
:1011B000FF2B3BD07B681B685968284B1B785A1C57
:1011C000D0B2264A10701A46C9B2254B9954254B05
:1011D00001221A70214B1B78052B2DD90023FB739C
:1011E0001F4B5B78032B03D01D4B5B78062B02D182
:1011F0000823FB7312E01A4B5B78042B02D10823FF
:10120000FB730BE0164B5B78102B07D1134B1B784D
:10121000062B03D9124B9B790933FB730F4B1B78B9
:10122000FA7B9A4208D800F06DF805E00B4B0022DB
:101230001A700C4B00221A70084B1B781A46084B88
:10124000134401221946084805F036FD00BF103747
:10125000BD4680BD0044004000040020FC03002087
:10126000FC020020FD0300206C05002080B582B048
:1012700000AF78607B681B680F4A934217D14FF428
:1012800000510E4802F014F90D4B00221A700D4B5C
:1012900000221A700C4805F034FD094B1B781A46E1
:1012A0000A4B134401221946074805F005FD00BF0B
:1012B0000837BD4680BD00BF00440040001001401B
:1012C000FC030020FD0300206C050020FC02002030
:1012D00080B500AF074805F014FD074B00221A70D7
:1012E000064B00221A7001220549024805F0E4FC71
:1012F00000BF80BD6C050020FC030020FD03002022
:10130000FC02002080B5CAB000AFA44B1B78052BAF
:1013100040F2B082A24B1B78052B40F0AD829F4B70
:101320001B78023B19469E48FFF7F6FE0346A7F8D6
:1013300016319A4B1B78023B994AD35C1A46B7F890
:101340001631DBB29A420BD1944B1B78013B944A85
:10135000D35C1A46B7F816311B0A9BB29A4205D0E5
:101360004FF400518F4802F0A3F886E28C4B5B7873
:1013700087F81531002387F8273107F59473A3F513
:10138000947305221A7007F59473A3F5947397F874
:1013900015215A7097F81531032B7DD1804B9B781E
:1013A0001BB21B021AB27E4BDB781BB213431BB27B
:1013B000A7F804317A4B1B791BB21B021AB2784B87
:1013C0005B791BB213431BB2A7F80231B7F80421B3
:1013D000B7F802311344B3F5967F46DCB7F8023113
:1013E000DBB25B00DAB207F59473A3F594739A70DD
:1013F000032387F827310023C7F820312EE0B7F800
:101400000421D7F820311344674A32F813301B0AFD
:1014100099B297F827315A1C87F827211A46C9B282
:1014200007F59473A3F594739954B7F80421D7F88A
:10143000203113445C4A32F8131097F827315A1CB4
:1014400087F827211A46C9B207F59473A3F5947358
:101450009954D7F820310133C7F82031B7F8023159
:10146000D7F820219A42CADBBCE107F59473A3F5B3
:1014700094735B7863F07F03DAB207F59473A3F596
:1014800094735A7007F59473A3F5947302229A70BB
:10149000032387F82731A5E197F81531042B40F095
:1014A00087803F4B9B781BB21B021AB23C4BDB7808
:1014B0001BB213431BB2A7F80831394B1B791BB27F
:1014C0001B021AB2364B5B791BB213431BB2A7F84F
:1014D0000631B7F80821B7F806311344052B46DC6E
:1014E000B7F80631DBB25B00DAB207F59473A3F507
:1014F00094739A70032387F827310023C7F81C31AF
:101500002EE0B7F80821D7F81C311344274A32F8E7
:1015100013301B0A99B297F827315A1C87F82721F4
:101520001A46C9B207F59473A3F594739954B7F8A2
:101530000821D7F81C3113441C4A32F8131097F8CD
:1015400027315A1C87F827211A46C9B207F5947328
:10155000A3F594739954D7F81C310133C7F81C31A3
:10156000B7F80631D7F81C219A42CADB3AE107F5F1
:101570009473A3F594735B7863F07F03DAB207F595
:101580009473A3F594735A7007F59473A3F5947349
:1015900002229A70032387F8273123E1FC030020FD
:1015A000FC0200200010014088000020E002002022
:1015B00097F81531062B6ED1B24B9B781BB21B02EC
:1015C0001AB2B04BDB781BB213431BB2A7F80C3135
:1015D000AC4B1B791BB21B021AB2AA4B5B791BB234
:1015E00013431BB2A7F80A31B7F80C31B3F5967F55
:1015F0003AD2B7F80C31A449B7F80A2121F81320E0
:10160000B7F80C3140F2091293420DD1B7F80A3104
:10161000012B09D19C4B00225A839B4B00225A87F5
:10162000994B0022A3F81022964B9A7807F59473F1
:10163000A3F594739A70934BDA7807F59473A3F536
:101640009473DA708F4B1A7907F59473A3F594733A
:101650001A718C4B5A7907F59473A3F594735A71E8
:10166000062387F82731BDE007F59473A3F594733B
:101670005B7863F07F03DAB207F59473A3F5947394
:101680005A7007F59473A3F5947302229A7003239A
:1016900087F82731A6E097F81531102B40F08C80A1
:1016A000784B9B781BB21B021AB2764BDB781BB2CD
:1016B00013431BB2A7F81231724B1B791BB21B02EA
:1016C0001AB2704B5B791BB213431BB2A7F81031EF
:1016D0006C4B9B7987F80F31B7F81221B7F81031AE
:1016E0001344B3F5967F50DC97F80F21B7F810310B
:1016F0005B009A4249D10023C7F818311FE0D7F8A0
:1017000018315B0007335F4AD35C1BB21B021AB26D
:10171000D7F8183104335B005A49CB5C1BB2134332
:1017200019B2B7F81221D7F81831134489B2564AC2
:1017300022F81310D7F818310133C7F81831B7F869
:101740001031D7F818219A42D9DB4E4B9A7807F519
:101750009473A3F594739A704A4BDA7807F59473EF
:10176000A3F59473DA70474B1A7907F59473A3F5D0
:1017700094731A71434B5A7907F59473A3F59473D4
:101780005A71062387F827312CE007F59473A3F5E7
:1017900094735B7863F07F03DAB207F59473A3F573
:1017A00094735A7007F59473A3F5947302229A7098
:1017B000032387F8273115E007F59473A3F5947395
:1017C0005B7863F07F03DAB207F59473A3F5947343
:1017D0005A7007F59473A3F5947301229A7003234A
:1017E00087F8273197F827213B4611461846FFF71F
:1017F00093FC0346A7F8163197F827315A1C87F84F
:1018000027211A46B7F81631D9B207F59473A3F514
:1018100094739954B7F816311B0A99B297F8273187
:101820005A1C87F827211A46C9B207F59473A3F505
:101830009473995497F827319AB239466423134820
:1018400005F0AFF90346002B08D04FF400511048C3
:1018500001F02EFE0D4805F054FA04E04FF400416B
:101860000B4801F025FE0B4B00221A700A4B002298
:101870001A7002E000BF00E000BF07F59477BD4694
:1018800080BD00BFFC020020880000206C05002005
:1018900000100140FC030020FD03002080B500AFD4
:1018A000384B1B781A46384BB3F802329A4267D04D
:1018B000354BB3F80232013B042B53D801A252F846
:1018C00023F000BFD9180008F51800081119000806
:1018D0002D190008491900082A4B01221A702B4BB8
:1018E0004FF416525A60294805F029F9274805F0A7
:1018F000D6F846E0234B02221A70244B4FF496424E
:101900005A60224805F01BF9204805F0C8F838E075
:101910001C4B03221A701D4B4FF416425A601B4891
:1019200005F00DF9194805F0BAF82AE0154B042224
:101930001A70164B4FF461425A60144805F0FFF8D4
:10194000124805F0ACF81CE00E4B05221A700F4B44
:101950004FF4E1325A600D4805F0F1F80B4805F0FC
:101960009EF80EE0074B05221A70084B4FF4E13247
:101970005A60064805F0E3F8044805F090F800E0E6
:1019800000BF80BD00000020880000206C05002002
:1019900080B584B000AF00F0B5FE00F09FF800F015
:1019A00009FB00F035F900F00DFA00F0D9FA00F06B
:1019B0005DF900F053FA00F0EDF8344B00221A60A4
:1019C000334B00221A60334B00221A70FFF7C0FA23
:1019D0000023FB6007E0304AFB68002122F8131067
:1019E000FB680133FB60FB68042BF4DD0023BB6064
:1019F00007E02A4ABB68134400221A70BB6801330F
:101A0000BB60BB68072BF4DD00237B6007E0244A42
:101A10007B68134400221A707B6801337B607B680B
:101A2000032BF4DD4FF4807200211E4808F0FCFC0B
:101A30001D4B00221A701D4B00221A7000F0BAFED6
:101A400003461B4A1360012216491A4805F034F96F
:101A500005F0D8FF184A0021184806F01BF8034685
:101A6000174A1360174A0021174806F013F8034677
:101A7000164A1360164A0021164806F00BF8034672
:101A8000154A136005F0E0FF00BFFDE704040020E5
:101A9000080400200C040020E0020020EC020020DA
:101AA000F4020020FC020020FC030020FD030020C3
:101AB000000400206C050020ECA40008F1200008C0
:101AC000B405002010A50008FD200008B80500207E
:101AD00034A5000851210008BC05002080B594B051
:101AE00000AF07F1280328220021184608F09CFCCB
:101AF00007F1140300221A605A609A60DA601A61D2
:101B00003B1D00221A605A609A60DA600123BB62B2
:101B10004FF48033FB6200233B630123BB6302234A
:101B20007B644FF48033BB644FF4E013FB6407F134
:101B30002803184603F028FB0346002B01D000F0D1
:101B400035FB0F237B610223BB610023FB614FF454
:101B500080633B624FF4A0637B6207F114030221B0
:101B6000184603F093FD0346002B01D000F01EFB46
:101B700002237B600023FB603B1D184603F014FF2B
:101B80000346002B01D000F011FB00BF5037BD46CB
:101B900080BD000080B584B000AF3B1D00221A60FC
:101BA0005A609A60184B194A1A60174B00229A60C3
:101BB000154B00221A73144B00221A75124B4FF466
:101BC0006022DA61104B00225A600F4B01221A6129
:101BD0000D4800F0F9FD0346002B01D000F0E6FAB5
:101BE00000237B600123BB600023FB603B1D194683
:101BF000054800F0C1FE0346002B01D000F0D6FAE4
:101C000000BF1037BD4680BD1004002000240140F5
:101C100080B500AF124B134A1A60114B124A5A603A
:101C20000F4B00229A600E4B0022DA600C4B4FF4EF
:101C300080421A610A4B00225A61094B00229A61C4
:101C4000074B0022DA61064B00221A62044801F0B9
:101C500049FC0346002B01D000F0A8FA00BF80BD6C
:101C60004004002000540040A086010080B596B0DA
:101C700000AF07F1480300221A605A609A60DA60E8
:101C800007F1400300221A605A6007F12403002282
:101C90001A605A609A60DA601A615A619A613B1D53
:101CA00020220021184608F0BFFB444B444A1A602A
:101CB000424B00225A60414B00229A603F4B4FF644
:101CC000FF72DA603D4B00221A613C4B00225A61E0
:101CD0003A4B00229A61394803F01CFF0346002B5F
:101CE00001D000F063FA4FF48053BB6407F148035E
:101CF0001946324804F06EFA0346002B01D000F07A
:101D000055FA2E4803F055FF0346002B01D000F092
:101D10004DFA00233B6400237B6407F1400319461E
:101D2000264804F0FBFD0346002B01D000F03EFAEC
:101D300060237B620023BB620023FB6200233B63C2
:101D400000237B630023BB630023FB6307F12403B1
:101D500000221946194804F07BF90346002B01D0F4
:101D600000F024FA07F1240308221946134804F06E
:101D70006FF90346002B01D000F018FA00237B60B6
:101D80000023BB600023FB6000233B6100237B61D9
:101D90004FF40053BB6100233B623B1D19460748CB
:101DA00004F01AFE0346002B01D000F0FFF90348AF
:101DB00000F038FB00BF5837BD4680BD94040020BA
:101DC000002C014080B586B000AF07F10803002267
:101DD0001A605A609A60DA603B4600221A605A60C4
:101DE0001D4B4FF080421A601B4B00225A601A4B69
:101DF00000229A60184B4FF6FF72DA60164B0022F1
:101E00001A61154B00229A61134803F083FE0346C2
:101E1000002B01D000F0CAF94FF48053BB6007F1EA
:101E2000080319460C4804F0D5F90346002B01D0ED
:101E300000F0BCF900233B6000237B603B46194661
:101E4000054804F06BFD0346002B01D000F0AEF90D
:101E500000BF1837BD4680BDDC04002080B58EB0C1
:101E600000AF07F1280300221A605A609A60DA6016
:101E700007F1200300221A605A603B1D00221A60FD
:101E80005A609A60DA601A615A619A61324B334A39
:101E90001A60314B00225A602F4B00229A602E4B61
:101EA0004FF6FF72DA602C4B00221A612A4B002297
:101EB0009A61294803F02EFE0346002B01D000F062
:101EC00075F94FF48053BB6207F128031946224885
:101ED00004F080F90346002B01D000F067F91E489A
:101EE00003F067FE0346002B01D000F05FF90023EA
:101EF0003B6200237B6207F120031946164804F079
:101F00000DFD0346002B01D000F050F960237B60EB
:101F10000023BB600023FB6000237B613B1D00228C
:101F200019460D4804F094F80346002B01D000F048
:101F30003DF93B1D04221946074804F089F8034681
:101F4000002B01D000F032F9034800F06BFA00BF1B
:101F50003837BD4680BD00BF240500200004004086
:101F600080B500AF114B124A1A60104B4FF4E132AA
:101F70005A600E4B00229A600C4B0022DA600B4B29
:101F800000221A61094B0C225A61084B00229A6107
:101F9000064B0022DA61054804F081FD0346002B60
:101FA00001D000F003F900BF80BD00BF6C05002028
:101FB0000044004080B588B000AF07F11003002254
:101FC0001A605A609A60DA60454B9B69444A43F054
:101FD00010039361424B9B6903F01003FB60FB68A5
:101FE0003F4B9B693E4A43F0200393613C4B9B6906
:101FF00003F02003BB60BB68394B9B69384A43F050
:1020000004039361364B9B6903F004037B607B6898
:10201000334B9B69324A43F008039361304B9B6911
:1020200003F008033B603B6800224FF460412D48F9
:1020300001F026FA002240F212212B4801F020FA8A
:10204000002241F21A01294801F01AFA4FF46043C4
:102050003B6101237B610023BB610223FB6107F12C
:10206000100319461F4800F0CBFF40F212233B61DA
:1020700001237B610023BB610223FB6107F1100395
:102080001946194800F0BCFF20233B6100237B6107
:102090000023BB6107F110031946134800F0B0FF9D
:1020A00041F21A033B6101237B610023BB610223E0
:1020B000FB6107F1100319460C4800F0A1FF4FF433
:1020C000C8433B6100237B610023BB6107F1100320
:1020D0001946064800F094FF00BF2037BD4680BD7A
:1020E000001002400010014000080140000C0140B7
:1020F00080B483B000AF786000BFFDE780B582B0E8
:1021000000AF78600F4B1B6801330E4A136000F07C
:1021100051FB02460C4B1B68D31A42F210729342D9
:1021200006D9FFF7D5F800F045FB0346064A1360D1
:10213000064B1B78002B01D0FFF7E4F8642005F074
:102140003BFDDFE7F802002000040020FD03002033
:1021500080B584B000AF78600023FB811023BB8181
:10216000FB8919460F48FEF7E7FABB8919460E4866
:10217000FEF7E2FAFFF792FB0A48FEF7D5FB0A48A2
:10218000FEF7D2FBFB8919460648FEF751FBBB89D7
:1021900019460548FEF74CFB0A2005F00DFD00BF6F
:1021A000DEE700BF300000204000002080B400AF18
:1021B00072B600BF00BFFDE780B584B000AF1C4B16
:1021C0009B691B4A43F001039361194B9B6903F020
:1021D0000103BB60BB68164BDB69154A43F08053B3
:1021E000D361134BDB6903F080537B607B68002273
:1021F0000F216FF0010000F0F4FD00220521052001
:1022000000F0EFFD052000F008FE0A4B5B68FB6064
:10221000FB6823F0E063FB60FB6843F00073FB6046
:10222000044AFB68536000BF1037BD4680BD00BF45
:10223000001002400000014080B588B000AF786017
:1022400007F1100300221A605A609A60DA607B6816
:102250001B68144A934221D1134B9B69124A43F4E1
:1022600000739361104B9B6903F40073FB60FB6880
:102270000D4B9B690C4A43F0040393610A4B9B6925
:1022800003F00403BB60BB6801233B6103237B6154
:1022900007F110031946054800F0B2FE00BF2037D1
:1022A000BD4680BD002401400010024000080140EE
:1022B00080B588B000AF786007F1100300221A6083
:1022C0005A609A60DA607B681B681D4A934233D17A
:1022D0001C4B9B691B4A43F008039361194B9B6994
:1022E00003F00803FB60FB68C0233B6112237B61A2
:1022F0000323FB6107F110031946134800F080FE29
:10230000104BDB690F4A43F40013D3610D4BDB69BB
:1023100003F40013BB60BB68002205211F2000F0FE
:1023200060FD1F2000F079FD00220521202000F033
:1023300058FD202000F071FD00BF2037BD4680BD54
:102340000054004000100240000C014080B586B0EF
:1023500000AF78607B681B682F4A934224D12F4BD3
:102360009B692E4A43F4006393612C4B9B6903F4F1
:1023700000637B617B6900220521182000F031FD9C
:10238000182000F04AFD00220521192000F029FD47
:10239000192000F042FD002205211B2000F021FD44
:1023A0001B2000F03AFD32E07B681B68B3F1804FE0
:1023B00014D11A4BDB69194A43F00103D361174B5F
:1023C000DB6903F001033B613B69002205211C200E
:1023D00000F007FD1C2000F020FD18E07B681B6862
:1023E0000F4A934213D10D4BDB690C4A43F00203B1
:1023F000D3610A4BDB6903F00203FB60FB68002238
:1024000005211D2000F0EDFC1D2000F006FD00BFA1
:102410001837BD4680BD00BF002C014000100240AF
:102420000004004080B588B000AF786007F1100369
:1024300000221A605A609A60DA607B681B681F4A43
:10244000934219D11E4B9B691D4A43F004039361CB
:102450001B4B9B6903F00403FB60FB684FF4A06314
:102460003B6102237B610223FB6107F110031946E4
:10247000144800F0C5FD1CE07B681B68124A9342BB
:1024800017D10F4B9B690E4A43F0040393610C4B29
:102490009B6903F00403BB60BB68C0233B6102235C
:1024A0007B610223FB6107F110031946054800F028
:1024B000A7FD00BF2037BD4680BD00BF002C0140F6
:1024C00000100240000801400004004080B588B0C0
:1024D00000AF786007F1100300221A605A609A601A
:1024E000DA607B681B681F4A934237D11E4BDB6959
:1024F0001D4A43F40033D3611B4BDB6903F4003303
:10250000FB60FB68184B9B69174A43F00403936117
:10251000154B9B6903F00403BB60BB6804233B615C
:1025200002237B610323FB6107F1100319460F4867
:1025300000F066FD08233B6100237B610023BB6143
:1025400007F110031946094800F05AFD0022052141
:10255000262000F046FC262000F05FFC00BF20375C
:10256000BD4680BD0044004000100240000801400C
:1025700080B582B000AF78607B681B68094A9342DF
:102580000CD1094BDB69084A23F40033D3610C21D9
:10259000064800F0B9FE262000F04DFC00BF0837C9
:1025A000BD4680BD004400400010024000080140CC
:1025B00080B400AF00BFFDE780B400AF00BFFDE70F
:1025C00080B400AF00BFFDE780B400AF00BFFDE7FF
:1025D00080B400AF00BFFDE780B400AF00BFBD46D0
:1025E00080BC704780B500AF00F0D2F806F002FF63
:1025F0000346012B01D007F0A7FC00BF80BD80B4CB
:1026000000AF00BFBD4680BC7047000080B500AF82
:10261000024803F02DFC00BF80BD00BF94040020E1
:1026200080B500AF024803F023FC00BF80BD00BFAF
:102630009404002080B500AF024803F019FC00BFED
:1026400080BD00BF9404002080B500AF024803F0B5
:102650000FFC00BF80BD00BFDC04002080B500AFD0
:10266000024803F005FC00BF80BD00BF2405002028
:1026700080B500AF024801F08DF800BF80BD00BFFB
:102680004004002080B500AF024801F0F4F900BF1B
:1026900080BD00BF4004002080B500AF024804F0B8
:1026A0001BFC00BF80BD00BF6C05002080B400AFE4
:1026B00000BFBD4680BC7047FFF7F8FF0B480C49D0
:1026C0000C4A002302E0D458C4500433C4188C428E
:1026D000F9D3094A094C002301E013600432A242F5
:1026E000FBD307F0A9FEFFF753F970470000002065
:1026F000140000208CA5000814000020141F0020E6
:10270000FEE7000080B500AF084B1B68074A43F0A6
:1027100010031360032000F059FB0F2000F008F8AD
:10272000FFF74AFD0023184680BD00BF002002408D
:1027300080B582B000AF7860124B1A68124B1B78DC
:1027400019464FF47A73B3FBF1F3B2FBF3F3184677
:1027500000F07FFB0346002B01D001230EE07B68D5
:102760000F2B0AD8002279684FF0FF3000F039FBB8
:10277000064A7B681360002300E0012318460837EF
:10278000BD4680BD040000200C0000200800002091
:1027900080B400AF054B1B781A46054B1B681344E9
:1027A000034A136000BFBD4680BC70470C00002088
:1027B000C005002080B400AF024B1B681846BD4620
:1027C00080BC7047C005002080B586B000AF78603F
:1027D0000023FB7500233B610023BB600023FB60EB
:1027E0007B68002B01D10123BEE07B689B68002B36
:1027F0007B689B6A002B09D17B680022DA627B68C8
:10280000002283F824207868FFF716FD786800F02E
:10281000ABF90346FB757B689B6A03F01003002B42
:1028200040F09980FB7D002B40F095807B689B6A8F
:1028300023F4885323F0020343F002027B689A6278
:102840007B685A687B68DB691A437B681B7B5B008B
:102850001343BA681343BB607B689B68B3F5807F02
:1028600003D07B689B68012B02D14FF4807300E09A
:1028700000233A6913433B617B681B7D012B19D10F
:102880007B681B7B002B09D17B689B69013B5A034A
:102890003B69134343F400633B610BE07B689B6A35
:1028A00043F020027B689A627B68DB6A43F0010296
:1028B0007B68DA627B681B685B6823F469417B682C
:1028C0001B683A690A435A607B681B689A68284B00
:1028D00013407A681268B9680B4393607B689B6801
:1028E000B3F5807F03D07B689B68012B04D17B68A4
:1028F0001B69013B1B05FB607B681B68DB6A23F4DB
:1029000070017B681B68FA680A43DA627B681B689F
:102910009A68184B1340BA689A420BD17B68002220
:10292000DA627B689B6A23F0030343F001027B6851
:102930009A6218E07B689B6A23F0120343F010024E
:102940007B689A627B68DB6A43F001027B68DA622B
:102950000123FB7507E07B689B6A43F010027B68EC
:102960009A620123FB75FB7D18461837BD4680BD72
:10297000FDF7E1FFFE0E1FFF80B485B000AF786069
:1029800039600023FB730023BB607B6893F824301D
:10299000012B01D10223DCE07B68012283F8242093
:1029A0003B685B68062B1CD87B681B68596B3B68CF
:1029B0005A6813469B001344053B1F2202FA03F397
:1029C000DB4319403B6818683B685A6813469B0014
:1029D0001344053B00FA03F27B681B680A435A6301
:1029E0003CE03B685B680C2B1CD87B681B68196B50
:1029F0003B685A6813469B001344233B1F2202FA8C
:102A000003F3DB4319403B6818683B685A68134678
:102A10009B001344233B00FA03F27B681B680A43C4
:102A20001A631BE07B681B68D96A3B685A681346C7
:102A30009B001344413B1F2202FA03F3DB4319407E
:102A40003B6818683B685A6813469B001344413B37
:102A500000FA03F27B681B680A43DA623B681B6872
:102A6000092B1CD97B681B68D9683B681A68134618
:102A70005B0013441E3B072202FA03F3DB431940B9
:102A80003B6898683B681A6813465B0013441E3B1A
:102A900000FA03F27B681B680A43DA6019E07B687E
:102AA0001B6819693B681A6813465B0013440722C8
:102AB00002FA03F3DB4319403B6898683B681A68E5
:102AC00013465B00134400FA03F27B681B680A4359
:102AD0001A613B681B68102B03D03B681B68112BE5
:102AE00032D17B681B681D4A934225D17B681B68E5
:102AF0009B6803F40003002B26D17B681B689A684F
:102B00007B681B6842F400029A603B681B68102BCC
:102B10001AD1134B1B68134AA2FB03239A0C1346CA
:102B20009B0013445B00BB6002E0BB68013BBB60E1
:102B3000BB68002BF9D107E07B689B6A43F0200259
:102B40007B689A620123FB737B68002283F8242050
:102B5000FB7B18461437BD4680BC704700240140FB
:102B60000400002083DE1B4380B584B000AF786092
:102B70000023FB607B681B689B6803F00103012B4B
:102B80002ED17B681B689A687B681B6822F0010263
:102B90009A60FFF70FFEF8601BE0FFF70BFE02469E
:102BA000FB68D31A022B14D97B681B689B6803F05F
:102BB0000103012B0DD17B689B6A43F010027B68F7
:102BC0009A627B68DB6A43F001027B68DA62012368
:102BD00007E07B681B689B6803F00103012BDCD0D6
:102BE000002318461037BD4680BD000080B485B074
:102BF00000AF78607B6803F00703FB600C4BDB6879
:102C0000BB60BA684FF6FF031340BB60FB681A0253
:102C1000BB68134343F0BF6343F40033BB60044A13
:102C2000BB68D36000BF1437BD4680BC704700BF8F
:102C300000ED00E080B400AF044BDB681B0A03F03A
:102C400007031846BD4680BC704700BF00ED00E09A
:102C500080B483B000AF0346FB7197F90730002BB7
:102C60000BDBFB7903F01F02064997F907305B097C
:102C7000012000FA02F241F8232000BF0C37BD46C4
:102C800080BC704700E100E080B483B000AF034631
:102C9000FB7197F90730002B12DBFB7903F01F0261
:102CA0000A4997F907305B09012000FA02F2203344
:102CB00041F82320BFF34F8F00BFBFF36F8F00BFDA
:102CC00000BF0C37BD4680BC704700BF00E100E08C
:102CD00080B483B000AF03463960FB7197F90730C9
:102CE000002B0ADB3B68DAB20C4997F90730120176
:102CF000D2B20B4483F800230AE03B68DAB20849F9
:102D0000FB7903F00F03043B1201D2B20B441A7695
:102D100000BF0C37BD4680BC704700BF00E100E03B
:102D200000ED00E080B489B000AFF860B9607A606F
:102D3000FB6803F00703FB61FB69C3F10703042B86
:102D400028BF0423BB61FB690433062B02D9FB694E
:102D5000033B00E000237B614FF0FF32BB6902FAC6
:102D600003F3DA43BB681A407B699A404FF0FF31A6
:102D70007B6901FA03F3D9437B680B401343184680
:102D80002437BD4680BC704780B582B000AF786004
:102D90007B68013BB3F1807F01D301230FE00A4A36
:102DA0007B68013B53600F214FF0FF30FFF790FF2E
:102DB000054B00229A60044B07221A600023184634
:102DC0000837BD4680BD00BF10E000E080B582B08E
:102DD00000AF78607868FFF709FF00BF0837BD468D
:102DE00080BD80B586B000AF0346B9607A60FB73E2
:102DF00000237B61FFF71EFF78617A68B968786904
:102E0000FFF790FF024697F90F3011461846FFF77B
:102E10005FFF00BF1837BD4680BD80B582B000AFF0
:102E20000346FB7197F907301846FFF711FF00BF03
:102E30000837BD4680BD80B582B000AF0346FB7148
:102E400097F907301846FFF71FFF00BF0837BD4648
:102E500080BD80B582B000AF78607868FFF794FFDE
:102E6000034618460837BD4680BD80B485B000AF24
:102E700078600023FB737B6893F82130DBB2022B70
:102E800008D07B6804229A637B68002283F82020A4
:102E9000012320E07B681B681A687B681B6822F0AE
:102EA0000E021A607B681B681A687B681B6822F038
:102EB00001021A607B681A6C7B68DB6B012101FAE6
:102EC00002F25A607B68012283F821207B6800228D
:102ED00083F82020FB7B18461437BD4680BC704722
:102EE00080B584B000AF78600023FB737B6893F8F3
:102EF0002130DBB2022B05D07B6804229A630123C8
:102F0000FB7351E07B681B681A687B681B6822F0C2
:102F10000E021A607B681B681A687B681B6822F0C7
:102F200001021A607B681B68224A934229D07B68A1
:102F30001B68214A934222D07B681B681F4A934238
:102F40001AD07B681B681E4A934212D07B681B68AC
:102F50001C4A93420AD07B681B681B4A934202D1E9
:102F60004FF480130EE04FF080730BE04FF480338A
:102F700008E04FF4805305E04FF4807302E0102323
:102F800000E00123114A53607B68012283F821206D
:102F90007B68002283F820207B685B6B002B03D0CA
:102FA0007B685B6B78689847FB7B18461037BD469B
:102FB00080BD00BF080002401C00024030000240FB
:102FC00044000240580002406C00024000000240F1
:102FD00080B483B000AF78607B6893F82130DBB2B7
:102FE00018460C37BD4680BC704780B483B000AF34
:102FF00078607B689B6B18460C37BD4680BC704779
:1030000080B48BB000AF7860396000237B6200230E
:103010003B6269E101227B6A02FA03F3FB613B68D0
:103020001B68FA691340BB61BA69FB699A4240F0B8
:1030300058813B685B689A4A93425ED0984A9342B3
:1030400075D8984A934258D0964A93426FD8964A78
:10305000934252D0944A934269D8944A93424CD0B6
:10306000924A934263D8924A934246D0904A9342FE
:103070005DD8122B2AD8122B59D801A252F823F06E
:10308000FB300008D5300008E7300008293100087F
:103090002F3100082F3100082F3100082F31000890
:1030A0002F3100082F3100082F3100082F31000880
:1030B0002F3100082F3100082F3100082F31000870
:1030C0002F310008DD300008F1300008794A9342C2
:1030D00013D02CE03B68DB683B6229E03B68DB688F
:1030E00004333B6224E03B68DB6808333B621FE04B
:1030F0003B68DB680C333B621AE03B689B68002B43
:1031000002D104233B6213E03B689B68012B05D18D
:1031100008233B627B68FA691A6109E008233B6275
:103120007B68FA695A6103E000233B6200E000BF5C
:10313000BB69FF2B01D87B6801E07B6804337B61AE
:10314000BB69FF2B02D87B6A9B0002E07B6A083BCD
:103150009B003B617B691A680F213B6901FA03F30D
:10316000DB431A40396A3B6901FA03F31A437B696E
:103170001A603B685B6803F08053002B00F0B1805D
:103180004D4B9B694C4A43F0010393614A4B9B6949
:1031900003F00103BB60BB68484A7B6A9B080233AB
:1031A00052F82330FB607B6A03F003039B000F227D
:1031B00002FA03F3DB43FA681340FB607B68404A82
:1031C000934213D07B683F4A93420DD07B683E4ABE
:1031D000934207D07B683D4A934201D1032306E026
:1031E000042304E0022302E0012300E000237A6AC2
:1031F00002F0030292009340FA681343FB602F49E8
:103200007B6A9B080233FA6841F823203B685B68BD
:1032100003F48013002B06D02D4B9A682C49BB6910
:1032200013438B6006E02A4B9A68BB69DB4328494D
:1032300013408B603B685B6803F40013002B06D0DF
:10324000234BDA682249BB691343CB6006E0204B6D
:10325000DA68BB69DB431E491340CB603B685B689F
:1032600003F40033002B06D0194B5A681849BB6988
:1032700013434B6006E0164B5A68BB69DB431449A5
:1032800013404B603B685B6803F48033002B21D014
:103290000F4B1A680E49BB6913430B6021E000BF56
:1032A0000000321000003110000022100000211038
:1032B0000000121000001110001002400000014038
:1032C00000080140000C01400010014000140140C2
:1032D000000401400B4B1A68BB69DB4309491340EA
:1032E0000B607B6A01337B623B681A687B6A22FA57
:1032F00003F3002B7FF48EAE00BF00BF2C37BD461A
:1033000080BC70470004014080B489B000AF786091
:1033100039600023FB619AE00122FB6902FA03F3A2
:103320003A681340BB61BB69002B00F08D804E4AA8
:10333000FB699B08023352F823307B61FB6903F081
:1033400003039B000F2202FA03F37A6913407B61A7
:103350007B68464A934213D07B68454A93420DD01E
:103360007B68444A934207D07B68434A934201D129
:10337000032306E0042304E0022302E0012300E02B
:103380000023FA6902F00302920093407A699A429C
:1033900032D13A4B1A68BB69DB43384913400B60A2
:1033A000364B5A68BB69DB43344913404B60334B9F
:1033B000DA68BB69DB4331491340CB602F4B9A6815
:1033C000BB69DB432D4913408B60FB6903F00303AA
:1033D0009B000F2202FA03F37B61234AFB699B08DF
:1033E000023352F823107B69DA431F48FB699B08BC
:1033F0000A40023340F82320BB69FF2B01D87B68C9
:1034000001E07B6804333B61BB69FF2B02D8FB6999
:103410009B0002E0FB69083B9B00FB603B691A686C
:103420000F21FB6801FA03F3DB431A400421FB6818
:1034300001FA03F31A433B691A607B68DA68BB69D7
:10344000DB431A407B68DA60FB690133FB613A6851
:10345000FB6922FA03F3002B7FF45EAF00BF00BFCD
:103460002437BD4680BC7047000001400008014081
:10347000000C014000100140001401400004014014
:1034800080B483B000AF78600B467B8013467B70BE
:103490007B78002B03D07A887B681A6103E07B88F5
:1034A0001A047B681A6100BF0C37BD4680BC7047A8
:1034B00080B485B000AF78600B467B807B68DB68AA
:1034C000FB607A88FB6813401A04FB68D9437B8849
:1034D0000B401A437B681A6100BF1437BD4680BC9D
:1034E0007047000080B584B000AF78607B68002B27
:1034F00001D101232BE17B6893F83D30DBB2002B37
:1035000006D17B68002283F83C207868FEF7D0FE65
:103510007B68242283F83D207B681B681A687B68DF
:103520001B6822F001021A607B681B681A687B68BE
:103530001B6842F400421A607B681B681A687B684B
:103540001B6822F400421A6002F0E8F9F8607B6818
:103550005B68814A934207D8FB68804A934294BFD4
:1035600001230023DBB206E0FB687D4A934294BF4F
:1035700001230023DBB2002B01D00123E7E0FB682D
:10358000784AA2FB03239B0CBB607B681B685B68CB
:1035900023F03F017B681B68BA680A435A607B6866
:1035A0001B681B6A23F03F017B685B686A4A934291
:1035B00002D8BB68013309E0BB684FF4967202FB86
:1035C00003F3694AA2FB03239B0901337A6812685B
:1035D0000B4313627B681B68DB6923F44F4222F0C4
:1035E000FF027B685B685C498B4219D8FB68591EF7
:1035F0007B685B685B00B1FBF3F3591C40F6FC731E
:103600000B40002B0AD0FB68591E7B685B685B008F
:10361000B1FBF3F30133C3F30B0351E004234FE099
:103620007B689B68002B11D1FB68581E7B6859682A
:103630000B465B000B44B0FBF3F30133C3F30B0306
:10364000002B0CBF01230023DBB212E0FB68581EE5
:103650007B6859680B469B000B4499000B44B0FBF8
:10366000F3F30133C3F30B03002B0CBF012300233F
:10367000DBB2002B01D0012322E07B689B68002B8A
:103680000ED1FB68581E7B6859680B465B000B44E3
:10369000B0FBF3F30133C3F30B0343F400430FE038
:1036A000FB68581E7B6859680B469B000B449900C9
:1036B0000B44B0FBF3F30133C3F30B0343F4404378
:1036C000796809681343CB617B681B681B6823F02A
:1036D000C0017B68DA697B681B6A1A437B681B68D8
:1036E0000A431A607B681B689B6823F4034323F03A
:1036F000FF037A6811697A68D26811437A681268A0
:103700000B4393607B681B68DB6823F0FF017B68D9
:103710005A697B689B691A437B681B680A43DA60B5
:103720007B681B681A687B681B6842F001021A609C
:103730007B6800221A647B68202283F83D207B6826
:1037400000221A637B68002283F83E20002318467B
:103750001037BD4680BD00BFA08601007F841E00DB
:10376000FF083D0083DE1B43D34D621080B483B05D
:1037700000AF78607B681B685B6903F08003802B77
:1037800003D17B681B6800221A6100BF0C37BD465D
:1037900080BC704780B588B000AF78600023BB6103
:1037A0007B681B685B687B617B68DB6A3B617B686D
:1037B00093F83E30FB737B6893F83D30BB73FB7B23
:1037C000102B03D0FB7B402B40F0C1807B681B6833
:1037D0009B69BB617B681B685B69FB61FB6903F0EC
:1037E0000103002B0DD13B69B3F52A0F03D03B69D0
:1037F000B3F12A4F01D1012300E00023012B00F097
:103800003281FB6903F00103002B0CD07B695B0A5A
:1038100003F00103002B06D0786801F09BFC786868
:1038200000F099FD92E0FB69DB0803F00103002B37
:1038300009D07B695B0A03F00103002B03D0786891
:1038400000F00EFE82E0FB695B0803F00103002B31
:1038500009D07B695B0A03F00103002B03D0786871
:1038600000F027FE72E0BB699B0803F00103002B08
:103870003BD07B681B685B6803F40063B3F5006FA3
:1038800000F0F380FB69DB0903F00103002B0FD08C
:103890007B699B0A03F00103002B09D0FB699B089D
:1038A00003F00103002B03D1786800F0F1F94DE03B
:1038B000FB699B0803F00103002B00F0D6807B69B5
:1038C0005B0A03F00103002B00F0CF80BB7B212BB0
:1038D00003D1786800F078FAC7E0FB7B402B40F01A
:1038E000C480786800F0E6FABFE07B681B685B681C
:1038F00003F40063B3F5006F00F0B780FB699B0928
:1039000003F00103002B0FD07B699B0A03F0010336
:10391000002B09D0FB699B0803F00103002B03D1A6
:10392000786800F05FFB11E0FB699B0803F001037E
:10393000002B00F09A807B695B0A03F00103002BE7
:1039400000F09380786800F015FC8EE08DE07B68D5
:103950001B6C002B04D07B681B685B69FB6107E074
:103960007B681B689B69BB617B681B685B69FB614B
:10397000FB695B0803F00103002B12D07B695B0A33
:1039800003F00103002B0CD07B681B6C002B03D0D1
:103990007B681B689B69BB61B969786800F0E0FFD0
:1039A00066E0FB691B0903F00103002B09D07B696A
:1039B0005B0A03F00103002B03D0786801F01AF8CA
:1039C00056E0BB7B212B02D0BB7B292B25D1FB6989
:1039D000DB0903F00103002B0FD07B699B0A03F086
:1039E0000103002B09D0FB699B0803F00103002BA6
:1039F00003D1786800F0F8FE39E0FB699B0803F01A
:103A00000103002B33D07B695B0A03F00103002B19
:103A10002DD0786800F025FF29E0FB699B0903F0B1
:103A20000103002B0FD07B699B0A03F00103002BDD
:103A300009D0FB699B0803F00103002B03D17868D0
:103A400000F02FFF14E0FB699B0803F00103002B3B
:103A50000ED07B695B0A03F00103002B08D0786865
:103A600000F05DFF04E000BF02E000BF00E000BF27
:103A70002037BD4680BD80B58AB000AF78607B68D6
:103A80001B685B693B627B681B685B68FB610023AA
:103A90007B627B6893F83E30FB763B6A1B0A03F03F
:103AA0000103002B16D0FB691B0A03F00103002B56
:103AB00010D07B6A43F001037B627B681B686FF464
:103AC00080725A617B681B681A687B681B6842F4C5
:103AD00000421A603B6A5B0A03F00103002B0ED020
:103AE000FB691B0A03F00103002B08D07B6A43F03B
:103AF00002037B627B681B686FF400725A613B6A49
:103B00009B0A03F00103002B3FD0FB691B0A03F063
:103B10000103002B39D0FB7EBB767B685B8D9BB2AB
:103B20007B617B6893F83D30FB747B681B6BFB60AB
:103B3000BB7E202B12D17B69002B0FD1FB7C212B6C
:103B400008D0FB7C292B05D0FB7C282B06D1FB68F9
:103B5000212B03D1786801F07DF816E07B681B68A3
:103B60006FF480625A617B6A43F004037B62FB7EE0
:103B7000102B02D0FB7E402B07D17B681B681A6894
:103B80007B681B6842F400721A603B6ADB0A03F030
:103B90000103002B0ED0FB691B0A03F00103002B6D
:103BA00008D07B6A43F008037B627B681B686FF474
:103BB00000625A617B6A002B08D07B681A6C7B6AB2
:103BC0001A437B681A64786801F0B8F800BF283798
:103BD000BD4680BD80B483B000AF786000BF0C37B5
:103BE000BD4680BC704780B483B000AF786000BF32
:103BF0000C37BD4680BC704780B483B000AF78609E
:103C000000BF0C37BD4680BC704780B483B000AFA6
:103C1000786000BF0C37BD4680BC704780B483B06D
:103C200000AF78600B46FB7013463B8000BF0C373B
:103C3000BD4680BC704780B483B000AF786000BFE1
:103C40000C37BD4680BC704780B483B000AF78604D
:103C500000BF0C37BD4680BC704780B483B000AF56
:103C6000786000BF0C37BD4680BC704780B483B01D
:103C700000AF786000BF0C37BD4680BC704780B491
:103C800083B000AF786000BF0C37BD4680BC704782
:103C900080B584B000AF78607B6893F83D30FB73EB
:103CA0007B6893F83E30BB737B68DB6ABB607B68E4
:103CB0001B8D002B50D1FB7B212B4DD1BB68082BDA
:103CC0001DD0BB68202B1AD0BB6813F5803F16D0DF
:103CD0007B681B685A687B681B6822F4E0625A6044
:103CE0007B6811221A637B68002283F83E207B6880
:103CF000202283F83D207868FFF76CFF60E07B6846
:103D00001B685A687B681B6822F4E0625A607B6813
:103D10001B681A687B681B6842F400721A607B6833
:103D200000221A637B68202283F83D207B6893F889
:103D30003E30DBB2402B07D17B68002283F83E2067
:103D40007868FFF781FF3BE07B68002283F83E2024
:103D50007868FFF73FFF33E0FB7B212B05D0BB7B6F
:103D6000402B2DD1FB7B222B2AD17B685B8D9BB214
:103D7000002B08D17B681B685A687B681B6822F49B
:103D800080625A601CE07B6893F83E30DBB2402BC7
:103D900003D1786800F08EF812E07B685B6A1A78CD
:103DA0007B681B681A617B685B6A5A1C7B685A6275
:103DB0007B685B8D9BB2013B9AB27B685A85FFE7BB
:103DC00000BF1037BD4680BD80B584B000AF7860BD
:103DD0007B68DB6AFB607B6893F83D30DBB2212BAC
:103DE00064D17B685B8D9BB2002B12D07B685B6AD1
:103DF0001A787B681B681A617B685B6A5A1C7B684F
:103E00005A627B685B8D9BB2013B9AB27B685A8594
:103E10004CE0FB68082B1DD0FB68202B1AD0FB68F8
:103E200013F5803F16D07B681B685A687B681B6857
:103E300022F4E0625A607B6811221A637B680022D8
:103E400083F83E207B68202283F83D207868FFF7C6
:103E5000C1FE2BE07B681B685A687B681B6822F4F4
:103E6000E0625A607B681B681A687B681B6842F4D2
:103E700000721A607B6800221A637B68202283F834
:103E80003D207B6893F83E30DBB2402B07D17B6846
:103E9000002283F83E207868FFF7D6FE06E07B68B4
:103EA000002283F83E207868FFF794FE00BF1037A9
:103EB000BD4680BD80B584B000AF78607B6893F864
:103EC0003D30FB737B681B6D002B1DD17B68DB6C69
:103ED000012B0BD17B689B6CDAB27B681B681A6183
:103EE0007B681B6D9A1C7B681A6577E07B689B6C0E
:103EF0009BB21B12DAB27B681B681A617B681B6D70
:103F00005A1C7B681A6569E07B681B6D012B0BD11D
:103F10007B689B6CDAB27B681B681A617B681B6DDF
:103F20005A1C7B681A6559E07B681B6D022B52D1C5
:103F3000FB7B222B0DD17B681B681A687B681B6892
:103F400042F480721A607B681B6D5A1C7B681A658C
:103F500044E07B685B8D9BB2002B15D0FB7B212B53
:103F600012D17B685B6A1A787B681B681A617B6870
:103F70005B6A5A1C7B685A627B685B8D9BB2013B13
:103F80009AB27B685A8529E07B685B8D9BB2002BD7
:103F900024D1FB7B212B21D17B681B685A687B686D
:103FA0001B6822F4E0625A607B681B681A687B68B1
:103FB0001B6842F400721A607B6800221A637B68F7
:103FC000202283F83D207B68002283F83E20786819
:103FD000FFF73AFE02E07868FFF7C8FB00BF103732
:103FE000BD4680BD80B584B000AF78607B6893F833
:103FF0003D30DBB2222B40F0B9807B68DB6AFB608E
:104000007B685B8D9BB2BB60BB68032B21D97B684F
:104010001B681A697B685B6AD2B21A707B685B6A3C
:104020005A1C7B685A627B685B8D9BB2013B9AB2DB
:104030007B685A857B685B8D9BB2032B40F0968032
:104040007B681B685A687B681B6822F480625A6030
:104050008CE07B68DB6A022B7FD0BB68012B02D02F
:10406000BB68002B79D1786801F042F80346002B39
:104070004CD17B681B681A687B681B6822F48062DD
:104080001A607B681B685A687B681B6822F4E062D0
:104090005A607B681B681A697B685B6AD2B21A70C7
:1040A0007B685B6A5A1C7B685A627B685B8D9BB23B
:1040B000013B9AB27B685A857B68202283F83D20B9
:1040C0007B6893F83E30DBB2402B0AD17B6800223C
:1040D00083F83E207B6800221A637868FFF7BDFDF5
:1040E00044E07B68002283F83E20FB68082B02D066
:1040F000FB68202B03D17B6800221A6302E07B68F7
:1041000012221A637868FFF76EFD2FE07B681B6848
:104110005A687B681B6822F4E0625A607B681B68FF
:104120001A697B685B6AD2B21A707B685B6A5A1C38
:104130007B685A627B685B8D9BB2013B9AB27B685D
:104140005A857B68202283F83D207B68002283F813
:104150003E207868FFF78AFD08E07B681B685A6894
:104160007B681B6822F480625A60FFE700BF10374B
:10417000BD4680BD80B584B000AF78607B68DB6AE7
:10418000FB607B685B8D9BB2042B1BD17B681B683B
:104190005A687B681B6822F480625A607B681B68DF
:1041A0001A697B685B6AD2B21A707B685B6A5A1CB8
:1041B0007B685A627B685B8D9BB2013B9AB27B68DD
:1041C0005A85C4E07B685B8D9BB2032B29D17B6849
:1041D0001B685A687B681B6822F480625A60FB681F
:1041E000042B0AD0FB68022B07D07B681B681A6877
:1041F0007B681B6822F480621A607B681B681A69FE
:104200007B685B6AD2B21A707B685B6A5A1C7B68F7
:104210005A627B685B8D9BB2013B9AB27B685A8580
:1042200095E07B685B8D9BB2022B7DD1FB68012BF7
:1042300002D0FB68102B08D17B681B681A687B686A
:104240001B6822F480621A6016E0FB68042B02D01F
:10425000FB68022B08D17B681B681A687B681B68A7
:1042600042F480621A6007E07B681B681A687B680A
:104270001B6842F400721A607B681B681A697B68CD
:104280005B6AD2B21A707B685B6A5A1C7B685A629E
:104290007B685B8D9BB2013B9AB27B685A857B68D9
:1042A0001B681A697B685B6AD2B21A707B685B6AAA
:1042B0005A1C7B685A627B685B8D9BB2013B9AB249
:1042C0007B685A857B681B685A687B681B6822F488
:1042D00040725A607B68202283F83D207B6893F807
:1042E0003E30DBB2402B0AD17B68002283F83E20AF
:1042F0007B6800221A637868FFF7AFFC27E07B68D1
:10430000002283F83E20FB68082B02D0FB68202B9C
:1043100003D17B6800221A6302E07B6812221A63D1
:104320007868FFF760FC12E07B681B681A697B689D
:104330005B6AD2B21A707B685B6A5A1C7B685A62ED
:104340007B685B8D9BB2013B9AB27B685A8500BF4C
:104350001037BD4680BD80B483B000AF78607B6805
:1043600093F83E30DBB2402B17D17B681B6D002BDE
:1043700009D17B685B6CDBB21A467B681B6802F074
:10438000FE021A6167E07B685B6CDBB243F00103FD
:10439000DAB27B681B681A615DE07B681B69B3F564
:1043A000804F33D17B6893F83D30DBB2212B09D1AC
:1043B0007B685B6CDBB21A467B681B6802F0FE020E
:1043C0001A6108E07B685B6CDBB243F00103DAB290
:1043D0007B681B681A617B685B6B002B04D07B6871
:1043E0005B6B9B6A002B08D17B689B6B002B32D0E8
:1043F0007B689B6B9B6A002B2DD07B681B685A687F
:104400007B681B6842F400625A6024E07B681B6D85
:10441000002B0ED17B685B6C9BB2DB11DBB203F02F
:104420000603DBB263F00F03DAB27B681B681A6124
:1044300011E07B681B6D012B0DD17B685B6C9BB21F
:10444000DB11DBB203F00603DBB263F00E03DAB27A
:104450007B681B681A6100BF0C37BD4680BC704783
:1044600080B483B000AF78607B685B6CDAB27B6845
:104470001B681A617B685B6B002B04D07B685B6BED
:104480009B6A002B08D17B689B6B002B0CD07B6850
:104490009B6B9B6A002B07D07B681B685A687B6804
:1044A0001B6842F400625A6000BF0C37BD4680BCF6
:1044B000704780B491B000AF78607B6893F83E306D
:1044C00087F83F307B68DB6ABB637B681B6B7B6371
:1044D0007B6893F83D30DBB2222B40F074817B681F
:1044E0001B6D002B0FD197F83F30402B0BD10023D1
:1044F0003B637B681B685B693B637B681B689B69EC
:104500003B633B6B6BE17B681B6D002B1DD17B68B4
:104510001B69B3F5404F18D10023FB627B681B6811
:104520005B69FB627B681B689B69FB62FB6A7B685B
:104530001B681A687B681B6842F480721A607B688B
:104540001B6D5A1C7B681A6549E17B685B8D9BB2C9
:10455000002B13D10023BB627B681B685B69BB62C5
:104560007B681B689B69BB62BB6A7B681B681A68B7
:104570007B681B6842F400721A6020E17B685B8DE7
:104580009BB2012B40F08A80BB6B13F5803F37D183
:104590007B681B681A687B681B6822F480621A605B
:1045A0007B681B685B6803F40063B3F5006F13D18D
:1045B0007B681B681A687B681B6822F480621A603B
:1045C00000237B627B681B685B697B627B681B687E
:1045D0009B697B627B6AF2E000233B627B681B681D
:1045E0005B693B627B681B689B693B623B6A7B68DB
:1045F0001B681A687B681B6842F400721A60DEE070
:10460000BB6B082B2ED0BB6B202B2BD07B6B122BC4
:1046100002D1BB6B012B25D1BB6B042B0ED0BB6B26
:10462000022B0BD0BB6B102B08D07B681B681A6861
:104630007B681B6822F480621A6007E07B681B6855
:104640001A687B681B6842F480621A600023FB6171
:104650007B681B685B69FB617B681B689B69FB610E
:10466000FB69ACE07B681B681A687B681B6822F4F6
:1046700080621A600023BB617B681B685B69BB6159
:104680007B681B689B69BB61BB697B681B681A6898
:104690007B681B6842F400721A6090E07B685B8D57
:1046A0009BB2022B58D1BB6B042B21D0BB6B022BCE
:1046B0001ED0BB6B102B1BD07B681B681A687B68F5
:1046C0001B6842F400621A6000237B617B681B68F0
:1046D0005B697B617B681B689B697B617B697B682D
:1046E0001B681A687B681B6822F480621A6012E0FB
:1046F0007B681B681A687B681B6842F480621A60DA
:1047000000233B617B681B685B693B617B681B68BE
:104710009B693B613B697B681B685B6803F40063D2
:10472000B3F5006F4BD1BB6B13F5803F0BD0BB6B68
:10473000012B08D0BB6B082B05D0BB6B102B02D014
:10474000BB6B202B3BD17B681B685A687B681B685E
:1047500042F480525A6032E07B681B681A687B68BA
:104760001B6842F480621A607B681B685B6803F414
:104770000063B3F5006F17D1BB6B13F5803F0BD00F
:10478000BB6B012B08D0BB6B082B05D0BB6B102B70
:1047900002D0BB6B202B07D17B681B685A687B68F3
:1047A0001B6842F480525A600023FB607B681B68E0
:1047B0005B69FB607B681B689B69FB60FB687B68CF
:1047C00000221A650BE00023BB607B681B685B69F5
:1047D000BB607B681B689B69BB60BB68FFE700BF71
:1047E0004437BD4680BC704780B584B000AF786068
:1047F0007B6893F83D30FB737B685B8D9BB2002B2D
:104800002BD07B685B6A1A787B681B681A617B68AF
:104810005B6A5A1C7B685A627B685B8D9BB2013B6A
:104820009AB27B685A857B685B8D9BB2002B14D152
:10483000FB7B292B11D17B681B685A687B681B683E
:1048400022F480625A607B6821221A637B682822E6
:1048500083F83D207868FFF7CFF900BF1037BD46D9
:1048600080BD80B483B000AF78607B685B8D9BB205
:10487000002B11D07B685B6A1A787B681B681A6111
:104880007B685B6A5A1C7B685A627B685B8D9BB253
:10489000013B9AB27B685A8500BF0C37BD4680BC8D
:1048A000704780B584B000AF78607B6893F83D3086
:1048B000FB737B685B8D9BB2002B2CD07B681B68E5
:1048C0001A697B685B6AD2B21A707B685B6A5A1C91
:1048D0007B685A627B685B8D9BB2013B9AB27B68B6
:1048E0005A857B685B8D9BB2002B14D1FB7B2A2BF6
:1048F00011D17B681B685A687B681B6822F4806250
:104900005A607B6822221A637B68282283F83D2044
:104910007868FFF77AF900BF1037BD4680BD80B4D4
:1049200083B000AF78607B685B8D9BB2002B12D0A8
:104930007B681B681A697B685B6AD2B21A707B68F5
:104940005B6A5A1C7B685A627B685B8D9BB2013B39
:104950009AB27B685A8500BF0C37BD4680BC704751
:1049600080B584B000AF786039600023FB737B684A
:1049700093F83D30DBB203F02803282B27D17B6866
:104980001B685A687B681B6822F480625A603B6827
:104990009B0803F00103002B01D10123FB733B684B
:1049A000DB0903F00103002B03D17B68DB68BB81CB
:1049B00002E07B689B69BB817B68002283F83C2016
:1049C000BA89FB7B19467868FFF728F90EE00023C7
:1049D000BB607B681B685B69BB607B681B689B690D
:1049E000BB60BB687B68002283F83C2000BF1037A7
:1049F000BD4680BD80B584B000AF78607B6893F819
:104A00003D30FB737B681B685A687B681B6822F427
:104A1000E0625A600023BB607B681B685B69BB6017
:104A20007B681B681A687B681B6842F001021A6089
:104A3000BB687B681B681A687B681B6822F480620D
:104A40001A607B681B685B6803F40063B3F5006F52
:104A500072D1FB7B222B02D0FB7B2A2B35D17B68CA
:104A60009B6B1B685B689AB27B685A857B685B8D21
:104A70009BB2002B05D07B681B6C43F004027B6863
:104A80001A647B681B685A687B681B6822F40062A2
:104A90005A607B689B6B1846FEF79AFA0346012B17
:104AA00049D07B689B6B694A5A637B689B6B18464D
:104AB000FEF716FA0346002B3DD07B689B6B5B6BC1
:104AC0007A68926B1046984735E07B685B6B1B6891
:104AD0005B689AB27B685A857B685B8D9BB2002BC2
:104AE00005D07B681B6C43F004027B681A647B680A
:104AF0001B685A687B681B6822F400625A607B68F6
:104B00005B6B1846FEF764FA0346012B14D07B68F2
:104B10005B6B4E4A5A637B685B6B1846FEF7E0F9A5
:104B20000346002B08D07B685B6B5B6B7A68526B2B
:104B30001046984700E000BF7B685B8D9BB2002B5E
:104B40003ED07B681B685B6903F00403042B12D121
:104B50007B681B681A697B685B6AD2B21A707B68D3
:104B60005B6A5A1C7B685A627B685B8D9BB2013B17
:104B70009AB27B685A857B681B685B6903F04003C7
:104B8000402B12D17B681B681A697B685B6AD2B2C2
:104B90001A707B685B6A5A1C7B685A627B685B8D03
:104BA0009BB2013B9AB27B685A857B685B8D9BB256
:104BB000002B05D07B681B6C43F004027B681A64F1
:104BC0007B681B6C002B03D0786800F0B7F839E0E5
:104BD000FB7B2A2B09D17B6800221A637B68282281
:104BE00083F83D207868FFF710F87B6893F83D3034
:104BF000DBB2282B11D17B68154ADA627B68002270
:104C00001A637B68202283F83D207B68002283F8AA
:104C10003E207868FFF70FF814E07B681B6B222BAF
:104C200002D0FB7B222B0DD17B6800221A637B68AC
:104C3000202283F83D207B68002283F83E2078689C
:104C4000FEF7E3FF00BF1037BD4680BDA14F00084F
:104C50000000FFFF80B584B000AF78607B6893F8F8
:104C60003D30FB737B68DB6ABB60BB68082B02D0FE
:104C7000BB68202B29D1FB7B282B26D17B682E4AB1
:104C8000DA627B681B685A687B681B6822F4E06202
:104C90005A607B681B686FF480625A617B681B688E
:104CA0001A687B681B6822F480621A607B680022A5
:104CB0001A637B68202283F83D207B68002283F8FA
:104CC0003E207868FEF7B7FF31E0FB7B212B29D12E
:104CD0007B68194ADA627B6821221A637B6820228A
:104CE00083F83D207B68002283F83E207B681B68A8
:104CF0005A687B681B6822F4E0625A607B681B6814
:104D00006FF480625A617B681B681A687B681B6855
:104D100022F480621A607868FEF728FD7868FEF752
:104D20006BFF04E07B681B686FF480625A6100BF10
:104D30001037BD4680BD00BF0000FFFF80B584B0C6
:104D400000AF78607B6893F83D30FB737B6893F825
:104D50003E30BB73BB7B102B02D0BB7B402B0AD1F8
:104D6000FB7B222B07D17B681B681A687B681B685A
:104D700022F400621A60FB7B03F02803282B07D182
:104D80007B6800221A637B68282283F83D2015E0A7
:104D90007B681B685B6803F40063B3F5006F0AD09F
:104DA000FB7B602B07D07B68202283F83D207B684B
:104DB000002283F83E207B6800221A637B681B6810
:104DC0005B6803F40063B3F5006F62D17B681B6816
:104DD0005A687B681B6822F400625A607B685B6BD0
:104DE00093F82130DBB2012B20D07B685B6B6A4AE1
:104DF0005A637B685B6B1846FEF772F80346002B1C
:104E000000F089807B681B681A687B681B6822F049
:104E100001021A607B68202283F83D207B685B6B6F
:104E20005B6B7A68526B1046984774E07B689B6BAB
:104E3000594A5A637B689B6B1846FEF751F8034644
:104E4000002B68D07B681B685B6903F04003402B34
:104E50000BD17B681B681A697B685B6AD2B21A70D7
:104E60007B685B6A5A1C7B685A627B681B681A689D
:104E70007B681B6822F001021A607B68202283F89D
:104E80003D207B689B6B5B6B7A68926B1046984702
:104E900041E07B6893F83D30DBB2602B25D17B6825
:104EA000202283F83D207B6800221A647B681B68FF
:104EB0005B6903F04003402B0BD17B681B681A69C8
:104EC0007B685B6AD2B21A707B685B6A5A1C7B682B
:104ED0005A627B681B681A687B681B6822F00102B3
:104EE0001A607868FEF7CBFE15E07B681B685B698B
:104EF00003F04003402B0BD17B681B681A697B6869
:104F00005B6AD2B21A707B685B6A5A1C7B685A6211
:104F10007868FEF7ABFE7B681B6CBB60BB6803F078
:104F20000103002B0ED1BB6803F00203002B09D153
:104F3000BB6803F00403002B04D1BB6803F0080333
:104F4000002B07D07B681B685A687B681B6822F4BB
:104F5000E0625A607B6893F83D30FB737B681B6CA2
:104F600003F00403042B13D1FB7B282B10D17B68A7
:104F70000A4ADA627B6800221A637B68202283F87F
:104F80003D207B68002283F83E207868FEF753FEC0
:104F900000BF1037BD4680BDA14F00080000FFFFD5
:104FA00080B586B000AF78600023FB607B685B6AE9
:104FB0007B617B6993F83D30FB744B4B1B68DB08CE
:104FC0004A4AA2FB03231A0A13469B001344DA0041
:104FD000D31AFB60FB68002B06D17B691B6C43F086
:104FE00020027B691A640AE0FB68013BFB607B6975
:104FF0001B681B6803F40073B3F5007FEAD07B697C
:105000005B6B002B03D07B695B6B00229A627B6930
:105010009B6B002B03D07B699B6B00229A627B69A0
:105020001B681A687B691B6822F480621A607B69BE
:1050300000225A857B695B6B002B03D07B695B6B1D
:1050400000225A637B699B6B002B03D07B699B6BAF
:1050500000225A637B691B681A687B691B6822F00F
:1050600001021A607B6993F83D30DBB2602B0ED1F0
:105070007B69202283F83D207B69002283F83E2053
:105080007B6900221A647869FEF7F9FD27E0FB7C52
:1050900003F02803282B17D17B691B681A687B69EA
:1050A0001B6842F001021A607B691B681A687B6901
:1050B0001B6842F480621A607B6900221A637B6974
:1050C000282283F83D2007E07B69202283F83D20D9
:1050D0007B69002283F83E207869FEF7C7FD00BF98
:1050E0001837BD4680BD00BF0400002089B5F81404
:1050F00080B485B000AF78600023FB60134B1B6861
:10510000DB08134AA2FB03231A0A13469B0013442D
:10511000FB60FB68013BFB60FB68002B07D17B68F1
:105120001B6C43F020027B681A64012308E07B6853
:105130001B681B6803F40073B3F5007FE9D00023FC
:1051400018461437BD4680BC704700BF04000020DD
:1051500089B5F81480B483B000AF78607B68DB6AEF
:10516000B3F52A0F03D17B680122DA6207E07B687E
:10517000DB6AB3F12A4F02D17B680822DA6200BFF2
:105180000C37BD4680BC704780B586B000AF7860F4
:105190007B68002B01D1012372E27B681B6803F05E
:1051A0000103002B00F08780924B5B6803F00C0337
:1051B000042B0CD08F4B5B6803F00C03082B12D12F
:1051C0008C4B5B6803F48033B3F5803F0BD1894B84
:1051D0001B6803F40033002B6CD07B685B68002BEA
:1051E00068D101234CE27B685B68B3F5803F06D150
:1051F000804B1B687F4A43F4803313602EE07B684A
:105200005B68002B0CD17B4B1B687A4A23F48033FC
:105210001360784B1B68774A23F4802313601DE0EA
:105220007B685B68B3F5A02F0CD1724B1B68714A89
:1052300043F4802313606F4B1B686E4A43F4803342
:1052400013600BE06B4B1B686A4A23F480331360D6
:10525000684B1B68674A23F4802313607B685B6894
:10526000002B13D0FDF7A6FA386108E0FDF7A2FA8B
:1052700002463B69D31A642B01D9032300E25D4B3C
:105280001B6803F40033002BF0D014E0FDF792FA12
:10529000386108E0FDF78EFA02463B69D31A642BA9
:1052A00001D90323ECE1534B1B6803F40033002BBB
:1052B000F0D100E000BF7B681B6803F00203002B05
:1052C00063D04C4B5B6803F00C03002B0BD0494BB5
:1052D0005B6803F00C03082B1CD1464B5B6803F49E
:1052E0008033002B16D1434B1B6803F00203002BC5
:1052F00005D07B681B69012B01D00123C0E13D4B28
:105300001B6823F0F8027B685B69DB0039491343B3
:105310000B603AE07B681B69002B20D0364B0122E2
:105320001A60FDF747FA386108E0FDF743FA0246D4
:105330003B69D31A022B01D90323A1E12D4B1B6832
:1053400003F00203002BF0D02A4B1B6823F0F80275
:105350007B685B69DB00274913430B6015E0264B34
:1053600000221A60FDF726FA386108E0FDF722FAFC
:1053700002463B69D31A022B01D9032380E11D4B5E
:105380001B6803F00203002BF0D17B681B6803F05D
:105390000803002B3AD07B689B69002B19D0174B70
:1053A00001221A60FDF706FA386108E0FDF702FAFB
:1053B00002463B69D31A022B01D9032360E10D4B4E
:1053C0005B6A03F00203002BF0D0012000F0CEFA5C
:1053D0001CE00A4B00221A60FDF7ECF938610FE07F
:1053E000FDF7E8F902463B69D31A022B08D90323DB
:1053F00046E100BF001002400000424280044242E9
:10540000924B5B6A03F00203002BE9D17B681B68B7
:1054100003F00403002B00F0A6800023FB758B4BE8
:10542000DB6903F08053002B0DD1884BDB69874A81
:1054300043F08053D361854BDB6903F08053BB603D
:10544000BB680123FB75824B1B6803F48073002B40
:1054500018D17F4B1B687E4A43F480731360FDF7BD
:10546000A9F9386108E0FDF7A5F902463B69D31AAE
:10547000642B01D9032303E1754B1B6803F480738C
:10548000002BF0D07B68DB68012B06D16F4B1B6AC9
:105490006E4A43F0010313622DE07B68DB68002B4A
:1054A0000CD16A4B1B6A694A23F001031362674BF4
:1054B0001B6A664A23F0040313621CE07B68DB6806
:1054C000052B0CD1614B1B6A604A43F00403136245
:1054D0005E4B1B6A5D4A43F0010313620BE05B4BBA
:1054E0001B6A5A4A23F001031362584B1B6A574A3E
:1054F00023F0040313627B68DB68002B15D0FDF7F3
:1055000059F938610AE0FDF755F902463B69D31AAB
:1055100041F28832934201D90323B1E04B4B1B6A1D
:1055200003F00203002BEED014E0FDF743F93861DD
:105530000AE0FDF73FF902463B69D31A41F288328F
:10554000934201D903239BE0404B1B6A03F0020303
:10555000002BEED1FB7D012B05D13C4BDB693B4A97
:1055600023F08053D3617B68DB69002B00F08780D8
:10557000364B5B6803F00C03082B61D07B68DB695A
:10558000022B46D1334B00221A60FDF713F9386124
:1055900008E0FDF70FF902463B69D31A022B01D947
:1055A00003236DE0294B1B6803F00073002BF0D13F
:1055B0007B681B6AB3F5803F08D1244B5B6823F4FA
:1055C00000327B689B68214913434B601F4B5B682B
:1055D00023F474127B68196A7B685B6A0B431B496E
:1055E00013434B601B4B01221A60FDF7E3F838614F
:1055F00008E0FDF7DFF802463B69D31A022B01D918
:1056000003233DE0114B1B6803F00073002BF0D027
:1056100035E0104B00221A60FDF7CCF8386108E045
:10562000FDF7C8F802463B69D31A022B01D90323C0
:1056300026E0064B1B6803F00073002BF0D11EE040
:105640007B68DB69012B07D1012319E000100240C0
:1056500000700040600042420B4B5B68FB60FB68DF
:1056600003F480327B681B6A9A4206D1FB6803F41C
:1056700070127B685B6A9A4201D0012300E000232C
:1056800018461837BD4680BD0010024080B584B072
:1056900000AF786039607B68002B01D10123D0E036
:1056A0006A4B1B6803F007033A689A4210D9674BAC
:1056B0001B6823F0070265493B6813430B60634B8B
:1056C0001B6803F007033A689A4201D00123B8E04F
:1056D0007B681B6803F00203002B20D07B681B68EB
:1056E00003F00403002B05D0594B5B68584A43F480
:1056F000E06353607B681B6803F00803002B05D050
:10570000534B5B68524A43F460535360504B5B68A1
:1057100023F0F0027B689B684D4913434B607B6824
:105720001B6803F00103002B40D07B685B68012BF2
:1057300007D1474B1B6803F40033002B15D101231D
:105740007FE07B685B68022B07D1414B1B6803F04D
:105750000073002B09D1012373E03D4B1B6803F05C
:105760000203002B01D101236BE0394B5B6823F06E
:1057700003027B685B68364913434B60FDF71AF8F8
:10578000F8600AE0FDF716F80246FB68D31A41F20A
:105790008832934201D9032353E02D4B5B6803F019
:1057A0000C027B685B689B009A42EBD1274B1B681D
:1057B00003F007033A689A4210D2244B1B6823F087
:1057C000070222493B6813430B60204B1B6803F020
:1057D00007033A689A4201D0012332E07B681B68D4
:1057E00003F00403002B08D0194B5B6823F4E0623C
:1057F0007B68DB68164913434B607B681B6803F0CA
:105800000803002B09D0124B5B6823F460527B68BD
:105810001B69DB000E4913434B6000F021F8024680
:105820000B4B5B681B0903F00F030A49CB5C22FAA0
:1058300003F3094A1360094B1B681846FCF778FF0D
:10584000002318461037BD4680BD00BF002002402F
:105850000010024058A500080400002008000020A5
:1058600080B487B000AF0023FB600023BB6000233F
:105870007B6100237B6000233B611E4B5B68FB6008
:10588000FB6803F00C03042B02D0082B03D027E0A5
:10589000194B3B6127E0FB689B0C03F00F03174A91
:1058A000D35C7B60FB6803F48033002B10D0114B7A
:1058B0005B685B0C03F00103114AD35CBB607B683F
:1058C0000D4A03FB02F2BB68B2FBF3F37B6104E019
:1058D0007B680C4A02FB03F37B617B693B6102E05E
:1058E000054B3B6100BF3B6918461C37BD4680BC79
:1058F000704700BF0010024000127A0070A5000837
:1059000080A5000800093D0080B400AF024B1B6871
:105910001846BD4680BC70470400002080B500AF2B
:10592000FFF7F2FF0246054B5B681B0A03F0070313
:105930000349CB5C22FA03F3184680BD00100240F5
:1059400068A5000880B500AFFFF7DEFF0246054BF3
:105950005B68DB0A03F007030349CB5C22FA03F31D
:10596000184680BD0010024068A5000880B485B0CC
:1059700000AF78600A4B1B680A4AA2FB03235B0A4C
:105980007A6802FB03F3FB6000BFFB685A1EFA60F3
:10599000002BF9D100BF00BF1437BD4680BC704753
:1059A00004000020D34D621080B586B000AF78604F
:1059B00000233B610023FB607B681B6803F001034D
:1059C000002B7DD00023FB754F4BDB6903F0805328
:1059D000002B0DD14C4BDB694B4A43F08053D36114
:1059E000494BDB6903F08053BB60BB680123FB7547
:1059F000464B1B6803F48073002B18D1434B1B6884
:105A0000424A43F480731360FCF7D4FE386108E027
:105A1000FCF7D0FE02463B69D31A642B01D903235D
:105A20006DE03A4B1B6803F48073002BF0D0364BCB
:105A30001B6A03F44073FB60FB68002B2ED07B686D
:105A40005B6803F44073FA689A4227D02E4B1B6AB6
:105A500023F44073FB602E4B01221A602C4B002272
:105A60001A60294AFB681362FB6803F00103002BEC
:105A700014D0FCF79FFE38610AE0FCF79BFE02465B
:105A80003B69D31A41F28832934201D9032336E0AD
:105A90001D4B1B6A03F00203002BEED01A4B1B6A4E
:105AA00023F440727B685B68174913430B62FB7DEC
:105AB000012B05D1144BDB69134A23F08053D361CA
:105AC0007B681B6803F00203002B08D00E4B5B6859
:105AD00023F440427B689B680B4913434B607B680F
